{
  "contractName": "TasksContract",
  "abi": [
    {
      "inputs": [],
      "stateMutability": "nonpayable",
      "type": "constructor"
    },
    {
      "anonymous": false,
      "inputs": [
        {
          "indexed": false,
          "internalType": "uint256",
          "name": "id",
          "type": "uint256"
        },
        {
          "indexed": false,
          "internalType": "string",
          "name": "title",
          "type": "string"
        },
        {
          "indexed": false,
          "internalType": "string",
          "name": "description",
          "type": "string"
        },
        {
          "indexed": false,
          "internalType": "bool",
          "name": "done",
          "type": "bool"
        },
        {
          "indexed": false,
          "internalType": "uint256",
          "name": "createdAt",
          "type": "uint256"
        }
      ],
      "name": "TaskCreated",
      "type": "event"
    },
    {
      "anonymous": false,
      "inputs": [
        {
          "indexed": false,
          "internalType": "uint256",
          "name": "id",
          "type": "uint256"
        },
        {
          "indexed": false,
          "internalType": "bool",
          "name": "done",
          "type": "bool"
        }
      ],
      "name": "TaskToggledDone",
      "type": "event"
    },
    {
      "inputs": [
        {
          "internalType": "uint256",
          "name": "",
          "type": "uint256"
        }
      ],
      "name": "tasks",
      "outputs": [
        {
          "internalType": "uint256",
          "name": "id",
          "type": "uint256"
        },
        {
          "internalType": "string",
          "name": "title",
          "type": "string"
        },
        {
          "internalType": "string",
          "name": "description",
          "type": "string"
        },
        {
          "internalType": "bool",
          "name": "done",
          "type": "bool"
        },
        {
          "internalType": "uint256",
          "name": "createdAt",
          "type": "uint256"
        }
      ],
      "stateMutability": "view",
      "type": "function",
      "constant": true
    },
    {
      "inputs": [],
      "name": "tasksCounter",
      "outputs": [
        {
          "internalType": "uint256",
          "name": "",
          "type": "uint256"
        }
      ],
      "stateMutability": "view",
      "type": "function",
      "constant": true
    },
    {
      "inputs": [
        {
          "internalType": "string",
          "name": "_title",
          "type": "string"
        },
        {
          "internalType": "string",
          "name": "_description",
          "type": "string"
        }
      ],
      "name": "createTask",
      "outputs": [],
      "stateMutability": "nonpayable",
      "type": "function"
    },
    {
      "inputs": [
        {
          "internalType": "uint256",
          "name": "_id",
          "type": "uint256"
        }
      ],
      "name": "toggleDone",
      "outputs": [],
      "stateMutability": "nonpayable",
      "type": "function"
    }
  ],
  "bytecode": "0x6080604052600080553480156200001557600080fd5b50620000926040518060400160405280600d81526020017f6d79206669727374207461736b000000000000000000000000000000000000008152506040518060400160405280601481526020017f6d79206669727374206465736372697074696f6e0000000000000000000000008152506200009860201b60201c565b62000719565b600080600190505b6000548111620001385783604051602001620000bd919062000490565b6040516020818303038152906040528051906020012060016000838152602001908152602001600020600101604051602001620000fb9190620004a9565b60405160208183030381529060405280519060200120141562000122576001915062000138565b80806200012f906200060d565b915050620000a0565b5080156200017d576040517f08c379a00000000000000000000000000000000000000000000000000000000081526004016200017490620004c2565b60405180910390fd5b60008081548092919062000191906200060d565b91905055506040518060a001604052806000548152602001848152602001838152602001600015158152602001428152506001600080548152602001908152602001600020600082015181600001556020820151816001019080519060200190620001fe92919062000294565b5060408201518160020190805190602001906200021d92919062000294565b5060608201518160030160006101000a81548160ff021916908315150217905550608082015181600401559050507f6549102bed7d1bb5ec529ee14e2ca60ffc1f47f66d4cc6ca713220613cc64c25600054848460004260405162000287959493929190620004e4565b60405180910390a1505050565b828054620002a290620005d7565b90600052602060002090601f016020900481019282620002c6576000855562000312565b82601f10620002e157805160ff191683800117855562000312565b8280016001018555821562000312579182015b8281111562000311578251825591602001919060010190620002f4565b5b50905062000321919062000325565b5090565b5b808211156200034057600081600090555060010162000326565b5090565b6200034f816200058b565b82525050565b6000620003628262000564565b6200036e81856200056f565b935062000380818560208601620005a1565b6200038b81620006b9565b840191505092915050565b6000620003a38262000564565b620003af818562000580565b9350620003c1818560208601620005a1565b80840191505092915050565b60008154620003dc81620005d7565b620003e8818662000580565b9450600182166000811462000406576001811462000418576200044f565b60ff198316865281860193506200044f565b62000423856200054f565b60005b83811015620004475781548189015260018201915060208101905062000426565b838801955050505b50505092915050565b6000620004676023836200056f565b91506200047482620006ca565b604082019050919050565b6200048a8162000597565b82525050565b60006200049e828462000396565b915081905092915050565b6000620004b78284620003cd565b915081905092915050565b60006020820190508181036000830152620004dd8162000458565b9050919050565b600060a082019050620004fb60008301886200047f565b81810360208301526200050f818762000355565b9050818103604083015262000525818662000355565b905062000536606083018562000344565b6200054560808301846200047f565b9695505050505050565b60008190508160005260206000209050919050565b600081519050919050565b600082825260208201905092915050565b600081905092915050565b60008115159050919050565b6000819050919050565b60005b83811015620005c1578082015181840152602081019050620005a4565b83811115620005d1576000848401525b50505050565b60006002820490506001821680620005f057607f821691505b602082108114156200060757620006066200068a565b5b50919050565b60006200061a8262000597565b91507fffffffffffffffffffffffffffffffffffffffffffffffffffffffffffffffff82141562000650576200064f6200065b565b5b600182019050919050565b7f4e487b7100000000000000000000000000000000000000000000000000000000600052601160045260246000fd5b7f4e487b7100000000000000000000000000000000000000000000000000000000600052602260045260246000fd5b6000601f19601f8301169050919050565b7f5461736b20776974682074686973207469746c6520616c72656164792065786960008201527f7374730000000000000000000000000000000000000000000000000000000000602082015250565b610d3980620007296000396000f3fe608060405234801561001057600080fd5b506004361061004c5760003560e01c8063292a45851461005157806385c3e7231461006d5780638d9776721461008b578063d81ef739146100bf575b600080fd5b61006b60048036038101906100669190610793565b6100db565b005b6100756102c2565b60405161008291906109b0565b60405180910390f35b6100a560048036038101906100a0919061080b565b6102c8565b6040516100b69594939291906109f4565b60405180910390f35b6100d960048036038101906100d4919061080b565b61041b565b005b600080600190505b600054811161017157836040516020016100fd9190610962565b60405160208183030381529060405280519060200120600160008381526020019081526020016000206001016040516020016101399190610979565b60405160208183030381529060405280519060200120141561015e5760019150610171565b808061016990610ba2565b9150506100e3565b5080156101b3576040517f08c379a00000000000000000000000000000000000000000000000000000000081526004016101aa90610990565b60405180910390fd5b6000808154809291906101c590610ba2565b91905055506040518060a00160405280600054815260200184815260200183815260200160001515815260200142815250600160008054815260200190815260200160002060008201518160000155602082015181600101908051906020019061023092919061066b565b50604082015181600201908051906020019061024d92919061066b565b5060608201518160030160006101000a81548160ff021916908315150217905550608082015181600401559050507f6549102bed7d1bb5ec529ee14e2ca60ffc1f47f66d4cc6ca713220613cc64c2560005484846000426040516102b59594939291906109f4565b60405180910390a1505050565b60005481565b60016020528060005260406000206000915090508060000154908060010180546102f190610b3f565b80601f016020809104026020016040519081016040528092919081815260200182805461031d90610b3f565b801561036a5780601f1061033f5761010080835404028352916020019161036a565b820191906000526020600020905b81548152906001019060200180831161034d57829003601f168201915b50505050509080600201805461037f90610b3f565b80601f01602080910402602001604051908101604052809291908181526020018280546103ab90610b3f565b80156103f85780601f106103cd576101008083540402835291602001916103f8565b820191906000526020600020905b8154815290600101906020018083116103db57829003601f168201915b5050505050908060030160009054906101000a900460ff16908060040154905085565b6000600160008381526020019081526020016000206040518060a00160405290816000820154815260200160018201805461045590610b3f565b80601f016020809104026020016040519081016040528092919081815260200182805461048190610b3f565b80156104ce5780601f106104a3576101008083540402835291602001916104ce565b820191906000526020600020905b8154815290600101906020018083116104b157829003601f168201915b505050505081526020016002820180546104e790610b3f565b80601f016020809104026020016040519081016040528092919081815260200182805461051390610b3f565b80156105605780601f1061053557610100808354040283529160200191610560565b820191906000526020600020905b81548152906001019060200180831161054357829003601f168201915b505050505081526020016003820160009054906101000a900460ff16151515158152602001600482015481525050905080606001511581606001901515908115158152505080600160008481526020019081526020016000206000820151816000015560208201518160010190805190602001906105df92919061066b565b5060408201518160020190805190602001906105fc92919061066b565b5060608201518160030160006101000a81548160ff021916908315150217905550608082015181600401559050507f3a359256e016dcfa8426ec503e08484999d6fcfb8c0f6084dc9e63374d83842982826060015160405161065f9291906109cb565b60405180910390a15050565b82805461067790610b3f565b90600052602060002090601f01602090048101928261069957600085556106e0565b82601f106106b257805160ff19168380011785556106e0565b828001600101855582156106e0579182015b828111156106df5782518255916020019190600101906106c4565b5b5090506106ed91906106f1565b5090565b5b8082111561070a5760008160009055506001016106f2565b5090565b600061072161071c84610a7a565b610a55565b90508281526020810184848401111561073d5761073c610c7d565b5b610748848285610afd565b509392505050565b600082601f83011261076557610764610c78565b5b813561077584826020860161070e565b91505092915050565b60008135905061078d81610cec565b92915050565b600080604083850312156107aa576107a9610c87565b5b600083013567ffffffffffffffff8111156107c8576107c7610c82565b5b6107d485828601610750565b925050602083013567ffffffffffffffff8111156107f5576107f4610c82565b5b61080185828601610750565b9150509250929050565b60006020828403121561082157610820610c87565b5b600061082f8482850161077e565b91505092915050565b61084181610ae7565b82525050565b600061085282610ac0565b61085c8185610acb565b935061086c818560208601610b0c565b61087581610c8c565b840191505092915050565b600061088b82610ac0565b6108958185610adc565b93506108a5818560208601610b0c565b80840191505092915050565b600081546108be81610b3f565b6108c88186610adc565b945060018216600081146108e357600181146108f457610927565b60ff19831686528186019350610927565b6108fd85610aab565b60005b8381101561091f57815481890152600182019150602081019050610900565b838801955050505b50505092915050565b600061093d602383610acb565b915061094882610c9d565b604082019050919050565b61095c81610af3565b82525050565b600061096e8284610880565b915081905092915050565b600061098582846108b1565b915081905092915050565b600060208201905081810360008301526109a981610930565b9050919050565b60006020820190506109c56000830184610953565b92915050565b60006040820190506109e06000830185610953565b6109ed6020830184610838565b9392505050565b600060a082019050610a096000830188610953565b8181036020830152610a1b8187610847565b90508181036040830152610a2f8186610847565b9050610a3e6060830185610838565b610a4b6080830184610953565b9695505050505050565b6000610a5f610a70565b9050610a6b8282610b71565b919050565b6000604051905090565b600067ffffffffffffffff821115610a9557610a94610c49565b5b610a9e82610c8c565b9050602081019050919050565b60008190508160005260206000209050919050565b600081519050919050565b600082825260208201905092915050565b600081905092915050565b60008115159050919050565b6000819050919050565b82818337600083830152505050565b60005b83811015610b2a578082015181840152602081019050610b0f565b83811115610b39576000848401525b50505050565b60006002820490506001821680610b5757607f821691505b60208210811415610b6b57610b6a610c1a565b5b50919050565b610b7a82610c8c565b810181811067ffffffffffffffff82111715610b9957610b98610c49565b5b80604052505050565b6000610bad82610af3565b91507fffffffffffffffffffffffffffffffffffffffffffffffffffffffffffffffff821415610be057610bdf610beb565b5b600182019050919050565b7f4e487b7100000000000000000000000000000000000000000000000000000000600052601160045260246000fd5b7f4e487b7100000000000000000000000000000000000000000000000000000000600052602260045260246000fd5b7f4e487b7100000000000000000000000000000000000000000000000000000000600052604160045260246000fd5b600080fd5b600080fd5b600080fd5b600080fd5b6000601f19601f8301169050919050565b7f5461736b20776974682074686973207469746c6520616c72656164792065786960008201527f7374730000000000000000000000000000000000000000000000000000000000602082015250565b610cf581610af3565b8114610d0057600080fd5b5056fea2646970667358221220c68384c939f9d8ce1d2460aaf1f2897e9bba9970f215197b58d7a2416033f58b64736f6c63430008060033",
  "immutableReferences": {},
  "source": "// SPDX-License-Identifier: MIT\r\npragma solidity ^0.8.6;\r\n\r\ncontract TasksContract {\r\n    uint256 public tasksCounter = 0;\r\n\r\n    struct Task {\r\n        uint256 id;\r\n        string title;\r\n        string description;\r\n        bool done;\r\n        uint256 createdAt;\r\n    }\r\n\r\n    event TaskCreated(\r\n        uint256 id,\r\n        string title,\r\n        string description,\r\n        bool done,\r\n        uint256 createdAt\r\n    );\r\n    event TaskToggledDone(uint256 id, bool done);\r\n\r\n    mapping(uint256 => Task) public tasks;\r\n\r\n    constructor() {\r\n        createTask(\"my first task\", \"my first description\");\r\n    }\r\n\r\nfunction createTask(string memory _title, string memory _description) public {\r\n    bool titleExists = false;\r\n    for (uint256 i = 1; i <= tasksCounter; i++) {\r\n        if (keccak256(abi.encodePacked(tasks[i].title)) == keccak256(abi.encodePacked(_title))) {\r\n            titleExists = true;\r\n            break;\r\n        }\r\n    }\r\n    require(!titleExists, \"Task with this title already exists\");\r\n\r\n    tasksCounter++;\r\n    tasks[tasksCounter] = Task(\r\n        tasksCounter,\r\n        _title,\r\n        _description,\r\n        false,\r\n        block.timestamp\r\n    );\r\n    emit TaskCreated(\r\n        tasksCounter,\r\n        _title,\r\n        _description,\r\n        false,\r\n        block.timestamp\r\n    );\r\n}\r\n\r\n\r\n    function toggleDone(uint256 _id) public {\r\n        Task memory _task = tasks[_id];\r\n        _task.done = !_task.done;\r\n        tasks[_id] = _task;\r\n        emit TaskToggledDone(_id, _task.done);\r\n    }\r\n}",
  "sourcePath": "D:\\GitHub\\Solidity-Javascript-RaspberryPI\\tesisblock\\contracts\\TasksContract.sol",
  "compiler": {
    "name": "solc",
    "version": "0.8.6+commit.11564f7e.Emscripten.clang"
  },
  "schemaVersion": "3.4.16",
  "updatedAt": "2024-02-25T04:04:13.919Z",
  "networkType": "ethereum",
  "devdoc": {
    "kind": "dev",
    "methods": {},
    "version": 1
  },
  "userdoc": {
    "kind": "user",
    "methods": {},
    "version": 1
  }
}